{
  "contractName": "Patient",
  "abi": [
    {
      "inputs": [
        {
          "internalType": "address",
          "name": "_userAddress",
          "type": "address"
        },
        {
          "internalType": "string",
          "name": "email",
          "type": "string"
        },
        {
          "internalType": "string",
          "name": "name",
          "type": "string"
        },
        {
          "internalType": "string",
          "name": "surname",
          "type": "string"
        }
      ],
      "name": "addPatient",
      "outputs": [
        {
          "internalType": "string",
          "name": "",
          "type": "string"
        }
      ],
      "stateMutability": "nonpayable",
      "type": "function"
    },
    {
      "inputs": [
        {
          "internalType": "address",
          "name": "_userAddress",
          "type": "address"
        }
      ],
      "name": "getPatient",
      "outputs": [
        {
          "internalType": "string",
          "name": "email",
          "type": "string"
        },
        {
          "internalType": "string",
          "name": "name",
          "type": "string"
        },
        {
          "internalType": "string",
          "name": "surname",
          "type": "string"
        }
      ],
      "stateMutability": "nonpayable",
      "type": "function"
    }
  ],
  "bytecode": "0x608060405234801561001057600080fd5b50610637806100206000396000f3fe608060405234801561001057600080fd5b50600436106100365760003560e01c80632c76361f1461003b578063b5368e201461006b575b600080fd5b610055600480360381019061005091906103c2565b61009d565b6040516100629190610505565b60405180910390f35b61008560048036038101906100809190610527565b61015b565b60405161009493929190610554565b60405180910390f35b6060604051806060016040528085815260200184815260200183815250600160008773ffffffffffffffffffffffffffffffffffffffff1673ffffffffffffffffffffffffffffffffffffffff1681526020019081526020016000206000820151816000019080519060200190610115929190610167565b506020820151816001019080519060200190610132929190610167565b50604082015181600201908051906020019061014f929190610167565b50905050949350505050565b60608060609193909250565b828054610173906105cf565b90600052602060002090601f01602090048101928261019557600085556101dc565b82601f106101ae57805160ff19168380011785556101dc565b828001600101855582156101dc579182015b828111156101db5782518255916020019190600101906101c0565b5b5090506101e991906101ed565b5090565b5b808211156102065760008160009055506001016101ee565b5090565b6000604051905090565b600080fd5b600080fd5b600073ffffffffffffffffffffffffffffffffffffffff82169050919050565b60006102498261021e565b9050919050565b6102598161023e565b811461026457600080fd5b50565b60008135905061027681610250565b92915050565b600080fd5b600080fd5b6000601f19601f8301169050919050565b7f4e487b7100000000000000000000000000000000000000000000000000000000600052604160045260246000fd5b6102cf82610286565b810181811067ffffffffffffffff821117156102ee576102ed610297565b5b80604052505050565b600061030161020a565b905061030d82826102c6565b919050565b600067ffffffffffffffff82111561032d5761032c610297565b5b61033682610286565b9050602081019050919050565b82818337600083830152505050565b600061036561036084610312565b6102f7565b90508281526020810184848401111561038157610380610281565b5b61038c848285610343565b509392505050565b600082601f8301126103a9576103a861027c565b5b81356103b9848260208601610352565b91505092915050565b600080600080608085870312156103dc576103db610214565b5b60006103ea87828801610267565b945050602085013567ffffffffffffffff81111561040b5761040a610219565b5b61041787828801610394565b935050604085013567ffffffffffffffff81111561043857610437610219565b5b61044487828801610394565b925050606085013567ffffffffffffffff81111561046557610464610219565b5b61047187828801610394565b91505092959194509250565b600081519050919050565b600082825260208201905092915050565b60005b838110156104b757808201518184015260208101905061049c565b838111156104c6576000848401525b50505050565b60006104d78261047d565b6104e18185610488565b93506104f1818560208601610499565b6104fa81610286565b840191505092915050565b6000602082019050818103600083015261051f81846104cc565b905092915050565b60006020828403121561053d5761053c610214565b5b600061054b84828501610267565b91505092915050565b6000606082019050818103600083015261056e81866104cc565b9050818103602083015261058281856104cc565b9050818103604083015261059681846104cc565b9050949350505050565b7f4e487b7100000000000000000000000000000000000000000000000000000000600052602260045260246000fd5b600060028204905060018216806105e757607f821691505b602082108114156105fb576105fa6105a0565b5b5091905056fea2646970667358221220c3052b7d1cc5df0a3fb024df3782feafd3ec5b8071ee758634c6e15bbaf5a6b164736f6c634300080c0033",
  "immutableReferences": {},
  "source": "// SPDX-License-Identifier: MIT\r\npragma solidity ^0.8.12; \r\n\r\ncontract Patient {\r\n\r\n  address[] private userIndex;\r\n\r\n  struct PatientHealthStruct {\r\n    bytes32 bloodType;\r\n    uint age;\r\n  }\r\n\r\n  struct PatientStruct {\r\n    string email;\r\n    string name;\r\n    string surname;\r\n  }\r\n\r\n  mapping(address => PatientStruct) private patients;\r\n\r\n  function addPatient(address _userAddress, string memory email,string memory name, string memory surname ) public returns (string memory) {\r\n    // PatientStruct storage patient = patients[_userAddress];\r\n    patients[_userAddress] = PatientStruct({\r\n      email: email,\r\n      name: name,\r\n      surname: surname\r\n    });\r\n  }\r\n\r\n  function getPatient(address _userAddress) public returns (string memory email,string memory name, string memory surname) {\r\n    \r\n  }\r\n\r\n\r\n\r\n\r\n\r\n}",
  "sourcePath": "C:\\Users\\ironp\\hackathon\\health-de\\health-de-contract\\contracts\\CreatUser.sol",
  "compiler": {
    "name": "solc",
    "version": "0.8.12+commit.f00d7308.Emscripten.clang"
  },
  "schemaVersion": "3.4.5",
  "updatedAt": "2022-03-15T17:13:20.138Z",
  "devdoc": {
    "kind": "dev",
    "methods": {},
    "version": 1
  },
  "userdoc": {
    "kind": "user",
    "methods": {},
    "version": 1
  }
}